:100000000C942A000C9447000C9447000C94470071
:100010000C9447000C9447000C9447000C94470044
:100020000C9447000C9447000C9447000C94470034
:100030000C9447000C9447000C9447000C94470024
:100040000C9447000C9447000C9447000C94470014
:100050000C94470011241FBECFE5D4E0DEBFCDBF16
:1000600010E0A0E6B0E0E8EBF2E002C005900D92EF
:10007000AC37B107D9F720E0ACE7B0E001C01D9282
:10008000AC37B207E1F70E9409010C945A010C94B5
:1000900000002AB128612AB920B5266820BD9B013D
:1000A000AC0184E0220F331F441F551F8A95D1F7FE
:1000B00060E072E18AE790E00E9438018FEF820FE2
:1000C00089B9DA01C9010197A109B109892F9A2FCC
:1000D000AB2FBB2780BD08955D9BFECF8CB90895E3
:1000E0000F931F93CF938C01C0E0F801EC0FF11D2B
:1000F0008081882321F00E946C00CF5FF6CFCF91E2
:100100001F910F91089595B39F70282F207F922BF8
:1001100095BBA898A99A32E03A95F1F700C0A99842
:10012000EFE8F1E03197F1F700C0000025B32F7040
:10013000F0E18F9FC0011124822B85BBA99A32E088
:100140003A95F1F700C0A9988FE99FE00197F1F780
:1001500000C00000089595B39F70282F207F922B38
:1001600095BBA89AA99A32E03A95F1F700C0A998F0
:10017000EFE8F1E03197F1F700C0000025B32F70F0
:10018000F0E18F9FC0011124822B85BBA99A32E038
:100190003A95F1F700C0A9988FE99FE00197F1F730
:1001A00000C0000008958FEF84BB8FE39CE90197A6
:1001B000F1F700C0000082E00E94830088E20E9404
:1001C00083008CE00E94830086E00E94830081E02F
:1001D0000E9483008FE99FE00197F1F700C00000C3
:1001E0000895CF93DF93EC018991882319F00E9441
:1001F000AB00FACFDF91CF91089581E00E94830098
:100200008FE99FE00197F1F700C0000080E80C94AF
:1002100083008FE08ABB60E875E280E090E00E9496
:1002200049000E94D300DB9A0E94FD0080E690E026
:100230000E94F10087E690E00E9470002FEF83EDAE
:1002400090E3215080409040E1F700C00000DB982F
:100250000E94FD0083E790E00E94F1002FEF83ED04
:1002600090E3215080409040E1F700C00000DBCFD8
:10027000A1E21A2EAA1BBB1BFD010DC0AA1FBB1FAA
:10028000EE1FFF1FA217B307E407F50720F0A21B1C
:10029000B30BE40BF50B661F771F881F991F1A9489
:1002A00069F760957095809590959B01AC01BD01B3
:0802B000CF010895F894FFCF7F
:1002B8004C4544204F4E00426C756520746F6F7436
:0C02C8006820004C4544204F46460000D2
:00000001FF
